:100000000C94E1000C9409010C9409010C94090171
:100010000C9409010C9409010C9409010C949703A8
:100020000C9409010C9409010C9409010C94090128
:100030000C9409010C9409010C9409010C94090118
:100040000C94000B0C9409010C94410E0C94730E4B
:100050000C9409010C9409010C9409010C940901F8
:100060000C9409010C940901000000080002010031
:100070000003040700000000000000000102040863
:100080001020408001020408102001020408102002
:10009000040404040404040402020202020203032E
:1000A00003030303000000002300260029000000D2
:1000B0000000250028002B0000000000240027007D
:1000C0002A0000407A10F35A00A0724E180900105E
:1000D000A5D4E80000E87648170000E40B540200BD
:1000E00000CA9A3B000000E1F505000080969800E8
:1000F000000040420F000000A08601000000102711
:1001000000000000E80300000000640000000000A0
:100110000A00000000000100000000002C76D888D2
:10012000DC674F0823DFC1DFAE59E1B1B796E5E3E5
:10013000E453C63AE651997696E8E6C28426EB89FE
:100140008C9B62ED407C6FFCEFBC9C9F40F2BAA59B
:100150006FA5F490055A2AF75C936B6CF9676DC133
:100160001BFCE0E40D47FEF520E6B500D0ED902E37
:100170000300943577050080841E080000204E0A95
:10018000000000C80C333333330F986E12831141D3
:10019000EF8D2114893BE65516CFFEE6DB18D1849E
:1001A0004B381BF77C1D901DA4BBE42420328472C5
:1001B0005E228100C9F124ECA1E53D271903A30EBD
:1001C0002D0311241FBECFEFD8E0DEBFCDBF11E05D
:1001D000A0E0B1E0E2EDF0E302C005900D92AC3D8D
:1001E000B107D9F723E0ACEDB1E001C01D92A43B0B
:1001F000B207E1F711E0C0ECD1E004C02297FE01A4
:100200000E949113CC3BD107C9F70E94E70E0C94D2
:100210005C180C94000040ED57E060E070E083ED66
:1002200092E00E94670A20E835E240E050E063E196
:1002300073E083ED92E00E947A0A83ED92E00E94DF
:10024000640A64E171E080910403909105030E94C7
:10025000420F6AE070E080E090E00E94790B41E09C
:1002600060E083ED92E00E94E50A26E040E855E276
:1002700060E070E083E193E00E94DF0D66E271E0F0
:1002800083E193E00E945A0F8AEE91E00E9480037E
:1002900061E0809110010E94640C61E080910E0188
:1002A0000E94640C61E080910C010E94640C61E08A
:1002B00080910A010C94640CCF92DF92EF92FF922E
:1002C000CF93DF93CDB7DEB72C970FB6F894DEBF90
:1002D0000FBECDBF6CED71E08AEE91E00E94D109B6
:1002E000892B09F448C06091E0017091E10180918F
:1002F000E2019091E3010E9406126B017C0122E071
:10030000AB01BC01CE0107960E9475106EE271E050
:10031000CE0101960E944710BE01695F7F4FCE015A
:1003200001960E94D110BC0183E193E00E94480F26
:10033000CE0101960E94D90FCE0107960E94D90FD7
:1003400020E030E040E85FE4C701B6010E94691197
:10035000882341F0C0920102D0920202E09203028F
:10036000F09204028AEE91E00E943604109200029C
:100370001092FF011AC08091FF0190910002019636
:10038000909300028093FF01813D974074F060E4F8
:1003900071E089EF91E00E945D10109201021092CD
:1003A00002021092030210920402C0900102D09047
:1003B0000202E0900302F090040222EE3FEF41E8D7
:1003C0005EE4C701B6010E946911882351F02FEF46
:1003D00030E047E75BE4C701B6010E946911811173
:1003E00006C06FE471E089EF91E00E945D10C0905B
:1003F0000102D0900202E0900302F090040223E197
:100400003FEF41E85EE4C701B6010E94691188230D
:1004100051F02FE730E847E75BE4C701B6010E94DF
:100420006911811106C064E571E089EF91E00E94D5
:100430005D10C0900102D0900202E0900302F090A3
:10044000040223EC3EEF41E85EE4C701B6010E94DE
:100450006911882351F02FE330EC47E75BE4C701D3
:10046000B6010E946911811106C068E571E089EF4B
:1004700091E00E945D1020E030E040E85FE4609190
:1004800001027091020280910302909104020E9485
:100490006911811106C06DE571E089EF91E00E945C
:1004A0005D106FE471E089EF91E00E94E410882311
:1004B00079F061E0809110010E949D0C60E08091D4
:1004C0000E010E949D0C609108017091090141C0CC
:1004D00064E571E089EF91E00E94E4108823A9F0BF
:1004E00060E0809110010E949D0C61E080910E01FE
:1004F0000E949D0C60E070E080910C010E94DC0B7A
:1005000060910601709107012AC068E571E089EFEA
:1005100091E00E94E410811110C06DE571E089EF57
:1005200091E00E94E41081111EC060E471E089EF47
:1005300091E00E94E4108823B1F060E08091100106
:100540000E949D0C60E080910E010E949D0C60E075
:1005500070E080910C010E94DC0B60E070E0809103
:100560000A010E94DC0B0E944A0B28EE33E040E0B7
:1005700050E00E942B132093EF013093F001409341
:10058000F1015093F201203B3A494F4F5F4FA1F5E3
:1005900061E0809110010E949D0C60E080910E014D
:1005A0000E949D0C609108017091090180910C01DD
:1005B0000E94DC0B60E070E080910A010E94DC0B7D
:1005C00064E971E180E090E00E94790B60E0809145
:1005D00010010E949D0C60E080910E010E949D0C14
:1005E00060E070E080910C010E94DC0B60E070E044
:1005F00080910A010E94DC0B8091EF019091F00143
:10060000A091F101B091F2018093EB019093EC0184
:10061000A093ED01B093EE012C960FB6F894DEBFD7
:100620000FBECDBFDF91CF91FF90EF90DF90CF90C5
:10063000089560E471E089EF91E00E94471064E75B
:1006400071E083EF91E00E94471060911201709178
:1006500013018AEE91E00C947B0383EF91E00E94FA
:10066000D90F89EF91E00C94D90FCF92DF92EF92DE
:10067000FF92CF93DF93EC01882777FD8095982F29
:100680000E9408126B017C0120E030E040E45FE34F
:100690000E94B81220E030E048E452E40E946D115C
:1006A0000E94D511C617D707ECF020E030E040EAF1
:1006B0005FE3C701B6010E94B81220E030E048E4D1
:1006C00052E40E946D1120E030E040E85FE30E94B8
:1006D00005110E94D51121E06C177D070CF420E074
:1006E000822F01C080E090E0DF91CF91FF90EF90EA
:1006F000DF90CF900895609305021092070208954D
:10070000F89482E08093B0008093B10094E69093D7
:10071000B3001092B2008093700078948093060228
:100720001092D2028091050260E00C94640C1F923A
:100730000F920FB60F9211242F933F934F935F9315
:100740006F937F938F939F93AF93BF93EF93FF9399
:10075000809105020E94D30C209108023091090279
:100760002F5F3F4F30930902209308029091D202ED
:10077000943618F095E0909306029091060293301B
:10078000B9F018F4923039F057C0943059F19530DF
:1007900009F44CC051C081114FC020910802309122
:1007A00009022436310508F443C01092D2021CC05D
:1007B000813009F041C0E091D20291E09E0F909308
:1007C000D202F0E02091080230910902EE0FFF1FE3
:1007D000EB5FFD4F368325831092090210920802C9
:1007E00094E021C0811117C0E091D20291E09E0FE8
:1007F0009093D202F0E02091080230910902EE0FAE
:10080000FF1FEB5FFD4F3683258310920902109284
:10081000080293E008C020910802309109022536B1
:10082000310550F095E09093060206C0811104C096
:10083000109209021092080290910702992329F060
:10084000811102C02D9A01C02D98FF91EF91BF91A7
:10085000AF919F918F917F916F915F914F913F9158
:100860002F910F900FBE0F901F90189582E08093EC
:1008700006021092D2020895CF93DF93FB01C28546
:10088000D3858A819B81885891098D35910500F522
:100890008091D202843029F48C819D818097479782
:1008A000D8F08091D202843498F08C819D8182545A
:1008B00091098E9768F4269623E030E080E090E07E
:1008C000DC01488159814950510949305105D8F01E
:1008D00060E070E0CB013AC08E819F810997099753
:1008E00000F7118610868FEF9FEFDC0184839583DC
:1008F000A683B78381E090E09183808361E070E01C
:1009000080E090E023C04A815B814651510941312A
:10091000510580F4880F991FAA1FBB1F81602E5FAD
:100920003F4F24962334310561F620E230E03187D1
:100930002087DCCF4A815B81465051094730510501
:1009400038F6880F991FAA1FBB1FE9CFDF91CF91FF
:1009500008950F931F93CF93DF93FB018091D202F1
:100960008A3108F44DC0C285D38588819981843F3E
:10097000914060F4118610868FEF9FEFDC01848335
:100980009583A683B78389E090E033C08A819B81F9
:1009900085974B97A8F58E010A5F1F4F22E030E044
:1009A00080E090E0DC014091D20250E0B9016F5F3D
:1009B0007F4F641775075CF4A80142505109EA01A2
:1009C000488159814750510947305105E8F021507D
:1009D000310935952795318720872C3031051CF456
:1009E000118610860DC084839583A683B78382E029
:1009F00090E09183808361E070E080E090E023C02C
:100A000060E070E0CB011FC0E8014881598143518B
:100A100051094F30510550F4880F991FAA1FBB1F71
:100A200081602E5F3F4F0C5F1F4FBDCFE8014881B3
:100A300059814A5051094930510510F7880F991FC3
:100A4000AA1FBB1FEECFDF91CF911F910F91089589
:100A50000F931F93CF93DF93FB018091D2028A31D2
:100A600008F451C0C285D385888199818032934032
:100A700030F4118610868FEF9FEFDC0107C08A816A
:100A80009B81C697869708F442C03DC084839583B6
:100A9000A683B78389E090E09183808361E070E072
:100AA00080E090E04FC0E8014881598145525109EA
:100AB0004B315105D0F5880F991FAA1FBB1F8160CC
:100AC0002E5F3F4F0C5F1F4F4091D20250E0B901A3
:100AD0006F5F7F4F641775075CF4A801425051099E
:100AE000EA01488159814C5051094B305105D8F2E7
:100AF0002150310935952795318720872C303105D4
:100B00002CF61186108660E070E0CB011BC08C8152
:100B10009D81C6978697B8F78E01085F1F4F23E027
:100B200030E080E090E0DC01CFCFE80148815981DE
:100B30004C5051094A30510530F7880F991FAA1FB0
:100B4000BB1FBECFDF91CF911F910F910895EF9200
:100B5000FF920F931F93CF93DF93FB018091D202FB
:100B6000823208F44DC0C285D3858A819B81069765
:100B7000079708F045C07E0186E0E80EF11C22E0F0
:100B800030E080E090E0DC01B9016F5F7F4F409181
:100B9000D20250E064177507D4F4E7012297088168
:100BA00019810E5111090731110570F5880F991F30
:100BB000AA1FBB1F8160E70148815981D4E0ED0E77
:100BC000F11C435051094530510550F19B01215012
:100BD00031093595279531872087203131051CF45F
:100BE000118610860DC084839583A683B7838AE01F
:100BF00090E09183808361E070E080E090E013C03A
:100C000060E070E0CB010FC0488159814C50510920
:100C10004B305105A8F7880F991FAA1FBB1FCBCFD8
:100C20002E5F3F4FB1CFDF91CF911F910F91FF907A
:100C3000EF9008958F929F92AF92BF92CF92DF92E2
:100C4000EF92FF920F931F93CF93DF937A01690185
:100C5000DA01CD91DC91FB0184859585C817D90710
:100C60000CF04AC0CE01880F991F0284F385E02D55
:100C7000E80FF91FA080B180C170DD27F1E0CF2718
:100C8000209719F484E690E002C08CE99FEF4801B8
:100C9000880E991EB401C5010E943503892B99F471
:100CA000800E911EB401C5010E943503892B71F499
:100CB000B401600F711FC5010E943503892BF9F043
:100CC00023E030E005C021E030E002C022E030E067
:100CD000D6018D919C91119701968217930744F04C
:100CE000F60111821082D7018D919C911197019686
:100CF0008D939C93CE0105C081E090E002C08FEF00
:100D00009FEFDF91CF911F910F91FF90EF90DF90B8
:100D1000CF90BF90AF909F908F9008954F925F9229
:100D20006F927F928F929F92AF92BF92CF92DF92FB
:100D3000EF92FF920F931F93CF93DF9300D000D0D9
:100D4000CDB7DEB76C017B018091D2028D3020F4EB
:100D500060E070E0CB017AC081E090E09C838B83FF
:100D60001A82198209E713E09E012F5F3F4FAE01FF
:100D70004D5F5F4FC6010E941A06892B49F79E01FD
:100D80002F5F3F4FAE014D5F5F4FB701C6010E941D
:100D90001A060197E9F69E012F5F3F4FAE014D5FA6
:100DA0005F4FB701C6010E941A06892B89F6A12C54
:100DB000B12C412C512C32018091D20290E02B8138
:100DC0003C81281739079CF509E713E09E012F5F46
:100DD0003F4FAE014D5F5F4FB701C6010E941A063B
:100DE0004C019E012F5F3F4FAE014D5F5F4FB7013A
:100DF000C6010E941A0621E08216910451F4892B43
:100E000009F0A6CF440C551C661C771C689440F86A
:100E10000AC0892809F09CCF019709F099CF440CAA
:100E2000551C661C771C8FEFA81AB80AC5CFF701AE
:100E3000B186A086448255826682778283E090E004
:100E40009183808361E070E080E090E00F900F90EC
:100E50000F900F90DF91CF911F910F91FF90EF9026
:100E6000DF90CF90BF90AF909F908F907F906F90CA
:100E70005F904F9008952F923F924F925F926F92A2
:100E80007F928F929F92AF92BF92CF92DF92EF921A
:100E9000FF920F931F93CF93DF9300D000D0CDB775
:100EA000DEB76C017B01DB011C968D919C911D9737
:100EB0001816190624F060E070E0CB01B4C081E0A0
:100EC00090E09C838B83DB011A96ED91FC911B973C
:100ED0008281938189974E9770F782E090E09C839E
:100EE0008B83848195810B970A9728F783E090E0A4
:100EF0009C838B831A8219820CEB11E09E012F5F79
:100F00003F4FAE014D5F5F4FC6010E941A06892B0D
:100F100091F60CEB11E09E012F5F3F4FAE014D5F4C
:100F20005F4FB701C6010E941A06019721F6A12C56
:100F3000B12C212C312C21012B813C81F70184859E
:100F40009585281739070CF060C00CEB11E09E0165
:100F50002F5F3F4FAE014D5F5F4FB701C6010E944B
:100F60001A063C01B3E0AB16B10491F00CEB11E0B2
:100F70009E012F5F3F4FAE014D5F5F4FB701C6012E
:100F80000E941A064C01E3E0AE16B10409F510C048
:100F90000CEB11E09E012F5F3F4FAE014D5F5F4FA5
:100FA000B701C6010E941A0668167906F9F283CFC6
:100FB0000CEB11E09E012F5F3F4FAE014D5F5F4F85
:100FC000B701C6010E941A068816990609F073CF68
:100FD0006114710459F48A94892809F06CCF220CA9
:100FE000331C441C551C689420F80BC06A94672875
:100FF00009F061CF892809F05ECF220C331C441C14
:10100000551CAFEFAA1ABA0A97CFB186A0862482E0
:1010100035824682578284E090E09183808361E04C
:1010200070E080E090E00F900F900F900F90DF91B4
:10103000CF911F910F91FF90EF90DF90CF90BF90D5
:10104000AF909F908F907F906F905F904F903F9068
:101050002F9008950F931F93CF93DF93FB01A285E9
:10106000B38512968D919C911397C6978697D0F46D
:1010700014968D919C9115974B97459798F41696D9
:10108000C3E0D0E020E030E040E050E060E070E01D
:1010900080E090E00D911C911197095011090830E2
:1010A000110520F060E070E0CB0135C012960D9183
:1010B0001C911397015111090D301105F8F401E04D
:1010C0000E945813216022961496C336D10511F759
:1010D000248335834683578300E20E94731322835F
:1010E000338387E090E09183808380E390E0918771
:1010F000808761E070E080E090E00DC012960D9175
:101100001C911397045011090530110558F601E0A0
:101110000E945813D8CFDF91CF911F910F9108955E
:101120000F931F93CF93DF93FB018091D20202852F
:1011300013858232A9F4D80112968D919C91139750
:101140000A97099768F48091D202D801A80FB11DBF
:10115000A80FB11D12978D919C910A97099770F075
:10116000D80112968D919C911397895791098335D7
:10117000910550F060E070E0CB015EC011861086F2
:101180008FEF9FEFDC014CC08091D202813290F34F
:10119000E8018C819D81CA97899760F798012A5F41
:1011A0003F4F43E050E080E090E0DC01E9016881DE
:1011B00079816A50710969307105E0F6E9016A8147
:1011C0007B816651710961317105E0F4880F991FC7
:1011D000AA1FBB1F81604E5F5F4F2C5F3F4F4332A2
:1011E000510521F7E801CA5BDF4F288139812A5078
:1011F00031092930310508F0BDCF20E130E03187D9
:1012000020870EC0E9016A817B81665071096730D1
:10121000710508F0AFCF880F991FAA1FBB1FDBCF46
:1012200084839583A683B78388E090E0918380834D
:1012300061E070E080E090E0DF91CF911F910F912D
:1012400008958F929F92AF92BF92CF92DF92EF92CA
:10125000FF927B01BA0180E090E00E9406124B01F0
:101260005C01B70180E090E00E9406126B017C01F6
:101270002DEC3CEC4CE45FE30E94B8129B01AC0106
:10128000C501B4010E94691187FD17C02DEC3CEC2B
:101290004CE45FE3C501B4010E94B8129B01AC01AC
:1012A000C701B6010E946911992787FD909588278B
:1012B000990F881F9927019602C080E090E0FF9067
:1012C000EF90DF90CF90BF90AF909F908F90089558
:1012D0008F929F92AF92BF92CF92DF92EF92FF9246
:1012E0000F931F93CF93DF936C01EB01EC84FD848C
:1012F00086E0E816F1040CF444C0EE0CFF1C06E096
:1013000010E045EC842E4DE9942E4CE1A42E41E8EA
:10131000B42E8A859B85FC01E00FF11F408151812D
:10132000F8013497E80FF91F60817181C6010E94AE
:101330002109FC01A501940163E971E080E091E0DD
:101340000E941B134F01AA2497FCA094BA2C862656
:101350009726A826B9260E5F1F4F0E151F05C9F642
:101360008C829D82AE82BF8280E290E099878887DE
:101370008FEF9FEF9983888361E070E080E090E0D9
:1013800003C060E070E0CB01DF91CF911F910F911E
:10139000FF90EF90DF90CF90BF90AF909F908F9095
:1013A00008950F931F93CF93DF938C01EB018AE095
:1013B00092E09B878A878091D20290E09D878C87FC
:1013C00080910602853009F050C0C8010E943C049B
:1013D000672B682B692B19F081E090E048C0BE01B3
:1013E000C8010E94A904672B682B692BA9F7BE01CD
:1013F000C8010E942805672B682B692B69F7BE017D
:10140000C8010E94A705672B682B692B29F7BE012D
:10141000C8010E948E06672B682B692BE9F6BE0176
:10142000C8010E943B07672B682B692BA9F6BE01F8
:10143000C8010E942A08672B682B692B69F6BE0138
:10144000C8010E949008672B682B692B29F6BE0102
:10145000C8010E946809672B682B692B09F0BCCF73
:1014600082E0809306021092D20280E090E0DF9149
:10147000CF911F910F9108950F931F93CF93DF93F7
:10148000EC01662359F00E944A0B69837A838B83AF
:101490009C83DF91CF911F910F9108950E944A0B79
:1014A00009811A812B813C81601B710B820B930B8C
:1014B000613271058105910530F763E070E080E0ED
:1014C00090E00E94790BEACF60E00C943C0AFC01AA
:1014D00013AA14AA15AA16AA1182128213821482C0
:1014E000411551056105710521F0CB01BA010C943C
:1014F000790B0895FB01BA01A901DC01D296FC9396
:10150000EE93D19726E0CF010C94DF0D1F93CF937C
:10151000DF93EC01162F65E671E089A99AA90E9474
:10152000420F4AE050E0612F89A99AA90E94D20F88
:101530006CE671E089A99AA90E94420F62E370E00B
:1015400080E090E0DF91CF911F910C94790B1F9375
:10155000CF93DF93EC01162F8D81882389F189A920
:101560009AA9DC01ED91FC910480F581E02D0995AB
:10157000892BA9F307C02637310519F12835310524
:1015800009F41D8289A99AA9DC01ED91FC910480DE
:10159000F581E02D09951816190694F489A99AA9E0
:1015A000DC01ED91FC910680F781E02D09959C010D
:1015B000332723363105F9F6612FCE010E94860AC2
:1015C00083E6DF91CF911F9108950F931F93CF93DF
:1015D000DF931F92CDB7DEB78C01662349F081E01F
:1015E000F801858360E0C80149830E94A70A498108
:1015F000F80145830F90DF91CF911F910F910895CE
:101600001F920F920FB60F9211242F933F938F9337
:101610009F93AF93BF9380910B0390910C03A09184
:101620000D03B0910E0330910A0323E0230F2D37F1
:1016300020F40196A11DB11D05C026E8230F0296D6
:10164000A11DB11D20930A0380930B0390930C03FB
:10165000A0930D03B0930E0380910F03909110039C
:10166000A0911103B09112030196A11DB11D8093A9
:101670000F0390931003A0931103B0931203BF9133
:10168000AF919F918F913F912F910F900FBE0F902F
:101690001F9018952FB7F89460910B0370910C036D
:1016A00080910D0390910E032FBF08953FB7F894DA
:1016B00080910F0390911003A0911103B091120338
:1016C00026B5A89B05C02F3F19F00196A11DB11D9D
:1016D0003FBF6627782F892F9A2F620F711D811DBA
:1016E000911D42E0660F771F881F991F4A95D1F719
:1016F0000895CF92DF92EF92FF92CF93DF936B0129
:101700007C010E94560BEB01C114D104E104F104E9
:1017100089F00E9403110E94560B6C1B7D0B683EE2
:10172000734090F381E0C81AD108E108F108C8516C
:10173000DC4FEACFDF91CF91FF90EF90DF90CF9019
:101740000895789484B5826084BD84B5816084BD39
:1017500085B5826085BD85B5816085BDEEE6F0E02A
:10176000808181608083E1E8F0E010828081826086
:101770008083808181608083E0E8F0E08081816007
:101780008083E1EBF0E0808184608083E0EBF0E037
:10179000808181608083EAE7F0E0808184608083DB
:1017A0008081826080838081816080838081806885
:1017B00080831092C10008951F93CF93DF93182F59
:1017C000EB0161E00E94640C209711F460E004C01A
:1017D000CF3FD10539F461E0812FDF91CF911F9187
:1017E0000C949D0CE12FF0E0E859FF4FE491E330B9
:1017F000F9F048F4E130B9F0E230A1F584B5806247
:1018000084BDC8BD34C0E730E9F0E83019F1E430F8
:1018100049F580918000806280938000D0938B0096
:10182000C0938A0024C084B5806884BDC7BD1FC032
:1018300080918000806880938000D0938900C0935D
:10184000880015C08091B00080688093B000C0937C
:10185000B3000DC08091B00080628093B000C0934F
:10186000B40005C0C038D1050CF0B5CFAFCFDF91C3
:10187000CF911F910895833081F028F4813099F041
:101880008230A1F008958730A9F08830B9F0843013
:10189000D1F4809180008F7D03C0809180008F778C
:1018A00080938000089584B58F7702C084B58F7DC2
:1018B00084BD08958091B0008F7703C08091B000FF
:1018C0008F7D8093B0000895CF93DF9390E0FC016B
:1018D000E458FF4F2491FC01E057FF4F8491882387
:1018E00049F190E0880F991FFC01E854FF4FA59142
:1018F000B49182559F4FFC01C591D4919FB761115E
:1019000008C0F8948C91209582238C93888182233F
:101910000AC0623051F4F8948C91322F30958323B1
:101920008C938881822B888304C0F8948C91822BBD
:101930008C939FBFDF91CF9108950F931F93CF9307
:10194000DF931F92CDB7DEB7282F30E0F901E859B9
:10195000FF4F8491F901E458FF4F1491F901E057CA
:10196000FF4F04910023C9F0882321F069830E946E
:101970003B0C6981E02FF0E0EE0FFF1FE255FF4FB7
:10198000A591B4919FB7F8948C91611103C0109503
:10199000812301C0812B8C939FBF0F90DF91CF914A
:1019A0001F910F910895CF93DF93282F30E0F90115
:1019B000E859FF4F8491F901E458FF4FD491F901A0
:1019C000E057FF4FC491CC2391F081110E943B0C52
:1019D000EC2FF0E0EE0FFF1FEC55FF4FA591B491F7
:1019E0002C912D2381E090E021F480E002C080E082
:1019F00090E0DF91CF910895FC01818D228D90E0E0
:101A0000805C9F4F821B91098F7399270895FC0179
:101A1000918D828D981731F0828DE80FF11D858DA3
:101A200090E008958FEF9FEF0895FC01918D828DD6
:101A3000981761F0828DDF01A80FB11D5D968C9122
:101A4000928D9F5F9F73928F90E008958FEF9FEF2D
:101A5000089589E99EE0892B49F080E090E0892B88
:101A600029F00E94990E81110C9400000895FC0148
:101A7000848DDF01A80FB11DA35ABF4F2C91848D17
:101A800090E001968F739927848FA689B7892C934C
:101A9000A089B1898C9180648C93938D848D9813E7
:101AA00006C00288F389E02D80818F7D80830895B0
:101AB000CF93DF93EC01888D8823C9F0EA89FB89F5
:101AC000808185FD05C0A889B9898C9186FD0FC0EC
:101AD0000FB607FCF5CF808185FFF2CFA889B989C1
:101AE0008C9185FFEDCFCE010E94370DE7CFDF91BE
:101AF000CF910895CF92DF92FF920F931F93CF93D0
:101B0000DF931F92CDB7DEB76C0181E0D601589606
:101B10008C9358975B969C915B975C968C915C97A5
:101B2000981307C05096ED91FC915197808185FDE7
:101B30002EC0F601038D10E00F5F1F4F0F731127AA
:101B4000F02EF601848DF81211C00FB607FCF9CF04
:101B5000D6015096ED91FC915197808185FFF1CF90
:101B6000C60169830E94370D6981EBCF838DE80F31
:101B7000F11DE35AFF4F6083D6015B960C935B9790
:101B80005296ED91FC915397808180620CC0D601F2
:101B90005696ED91FC91579760835096ED91FC918C
:101BA000519780818064808381E090E00F90DF9185
:101BB000CF911F910F91FF90DF90CF900895BF922A
:101BC000CF92DF92EF92FF92CF93DF93EC016A0105
:101BD0007B01B22EE889F98982E08083411581EE8C
:101BE000580761057105A1F060E079E08DE390E0B0
:101BF000A70196010E942B13215031094109510977
:101C00005695479537952795211580E1380798F027
:101C1000E889F989108260E874E88EE190E0A70114
:101C200096010E942B132150310941095109569503
:101C3000479537952795EC85FD853083EE85FF85A3
:101C40002083188EEC89FD89B082EA89FB89808126
:101C500080618083EA89FB89808188608083EA894A
:101C6000FB89808180688083EA89FB8980818F7D00
:101C70008083DF91CF91FF90EF90DF90CF90BF9066
:101C800008951F920F920FB60F9211242F938F93E6
:101C90009F93EF93FF93E0912303F09124038081BE
:101CA000E0912903F0912A0382FD12C09081809176
:101CB0002C038F5F8F7320912D03821751F0E091D9
:101CC0002C03F0E0ED5EFC4F958F80932C0301C058
:101CD0008081FF91EF919F918F912F910F900FBE77
:101CE0000F901F9018951F920F920FB60F9211240C
:101CF0002F933F934F935F936F937F938F939F9314
:101D0000AF93BF93EF93FF9383E193E00E94370D6E
:101D1000FF91EF91BF91AF919F918F917F916F91C3
:101D20005F914F913F912F910F900FBE0F901F9099
:101D3000189583E193E00E94FC0C21E0892B09F4C3
:101D400020E0822F0895109216031092150388EE5A
:101D500093E0A0E0B0E08093170390931803A09362
:101D60001903B0931A0381EC91E0909314038093CC
:101D7000130385EC90E09093200380931F0384EC81
:101D800090E0909322038093210380EC90E0909365
:101D900024038093230381EC90E0909326038093A7
:101DA000250382EC90E0909328038093270386EC30
:101DB00090E090932A038093290310922C031092B1
:101DC0002D0310922E0310922F03089508950E9460
:101DD000A10B0E94E60E0E940B01C9E2DDE00E9409
:101DE0005C012097E1F30E94290DF9CFCF92DF9299
:101DF000EF92FF920F931F93CF93DF937C016A01C1
:101E0000EB0100E010E00C151D0571F06991D701A0
:101E1000ED91FC910190F081E02DC7010995892B8E
:101E200019F00F5F1F4FEFCFC801DF91CF911F91C6
:101E30000F91FF90EF90DF90CF900895611571059D
:101E400081F0DB010D900020E9F7AD01415051090F
:101E5000461B570BDC01ED91FC910280F381E02DD4
:101E6000099480E090E00895DC01ED91FC91DB01A4
:101E700014964D915C9115976D917C910280F38140
:101E8000E02D09940C941E0F62E771E00C941E0F74
:101E90000F931F93CF93DF93EC010E94340F8C01BB
:101EA000CE010E94440F800F911FDF91CF911F91AF
:101EB0000F9108950F931F93CF93DF93EC010E942E
:101EC0001E0F8C01CE010E94440F800F911FDF91E5
:101ED000CF911F910F9108958F929F92AF92BF92D1
:101EE000CF92DF92EF92FF920F931F93CF93DF93E6
:101EF000CDB7DEB7A1970FB6F894DEBF0FBECDBF4A
:101F00007C01C42EE52FCB01D22E19A221E02D1584
:101F100010F02AE0D22E8E010F5D1F4F8D2C912CD8
:101F2000A12CB12C6C2D7E2FA50194010E942B13A6
:101F30008C2DD29E80191124015011098A3014F47D
:101F4000805D01C0895CF801808321153105410560
:101F5000510521F0C22EE32FCA01E4CFB801C70119
:101F60000E941E0FA1960FB6F894DEBF0FBECDBF24
:101F7000DF91CF911F910F91FF90EF90DF90CF9065
:101F8000BF90AF909F908F9008952115310541F437
:101F9000DC01ED91FC910190F081E02D642F09941A
:101FA0000C946C0F9A01462F50E060E070E00C94A6
:101FB000C50FFC01808191810C945D14CF93DF9358
:101FC000EC0188819981009711F00E945D141982BB
:101FD00018821D821C821B821A82DF91CF91089584
:101FE0000F931F93CF93DF93EC018B016F5F7F4FB4
:101FF000888199810E94EC14009731F0998388833D
:102000001B830A8381E001C080E0DF91CF911F91A3
:102010000F910895CF93DF93EC0188819981892BEB
:1020200029F08A819B818617970760F4CE010E9470
:10203000F00F882341F08C819D81892B19F4E88170
:10204000F981108281E0DF91CF910895EF92FF92A4
:102050000F931F93CF93DF93EC017B018A01BA01A9
:102060000E940A10811104C0CE010E94DE0F07C039
:102070001D830C83B701888199810E94C815CE0108
:10208000DF91CF911F910F91FF90EF900895FC0188
:1020900011821082138212821582148261157105D9
:1020A00059F0FB0101900020E9F7AF0141505109BF
:1020B000461B570B0C9426100895CF93DF93EC0129
:1020C0006115710561F0FB0101900020E9F7AF0196
:1020D00041505109461B570B0E94261002C00E9416
:1020E000DE0FCE01DF91CF910895EF92FF920F9313
:1020F0001F93CF93DF93CDB7DEB7A1970FB6F894B8
:10210000DEBF0FBECDBF7C01CB01BA01F70111824A
:102110001082138212821582148242E0420F8E01D5
:102120000F5F1F4F0E94A413BC01C7010E945D10E6
:10213000A1960FB6F894DEBF0FBECDBFDF91CF9151
:102140001F910F91FF90EF900895EF92FF920F93E0
:102150001F93CF93DF93EC017B010C811D816115EF
:10216000710511F480E016C04115510591F0040F7E
:10217000151FB8010E940A108823A1F32881398114
:102180008C819D81B701820F931F0E94C8151D830A
:102190000C8381E0DF91CF911F910F91FF90EF9021
:1021A0000895CF93DF93EC01FB0144815581608159
:1021B00071810E94A510811103C0CE010E94DE0F23
:1021C000CE01DF91CF910895FC0124813581232B2D
:1021D00031F421E061157105A1F0FB0108C0FC019B
:1021E000808191816115710531F421E0FC018081CC
:1021F000882339F005C00E94BF1521E0892B09F022
:1022000020E0822F089508955058BB27AA270ED0AA
:1022100075C166D130F06BD120F031F49F3F11F4DD
:102220001EF45BC10EF4E095E7FB51C1E92F77D1B5
:1022300080F3BA17620773078407950718F071F4E3
:102240009EF58FC10EF4E0950B2EBA2FA02D0B0139
:10225000B90190010C01CA01A0011124FF27591BEB
:1022600099F0593F50F4503E68F11A16F040A22FF1
:10227000232F342F4427585FF3CF46953795279562
:10228000A795F0405395C9F77EF41F16BA0B620B61
:10229000730B840BBAF09150A1F0FF0FBB1F661FA8
:1022A000771F881FC2F70EC0BA0F621F731F841FEB
:1022B00048F4879577956795B795F7959E3F08F011
:1022C000B3CF9395880F08F09927EE0F97958795D0
:1022D0000895D9D008F481E008950CD00FC107D13A
:1022E00040F0FED030F021F45F3F19F0F0C0511102
:1022F00039C1F3C014D198F39923C9F35523B1F32D
:10230000951B550BBB27AA2762177307840738F064
:102310009F5F5F4F220F331F441FAA1FA9F333D0C3
:102320000E2E3AF0E0E830D091505040E695001C77
:10233000CAF729D0FE2F27D0660F771F881FBB1F33
:10234000261737074807AB07B0E809F0BB0B802D0D
:10235000BF01FF2793585F4F2AF09E3F510568F059
:10236000B6C000C15F3FECF3983EDCF386957795ED
:102370006795B795F7959F5FC9F7880F911D96955B
:10238000879597F90895E1E0660F771F881FBB1FB7
:10239000621773078407BA0720F0621B730B840B64
:1023A000BA0BEE1F88F7E095089504D06894B11138
:1023B000D9C00895BCD088F09F5790F0B92F9927C5
:1023C000B751A0F0D1F0660F771F881F991F1AF040
:1023D000BA95C9F712C0B13081F0C3D0B1E0089509
:1023E000C0C0672F782F8827B85F39F0B93FCCF38A
:1023F000869577956795B395D9F73EF49095809536
:10240000709561957F4F8F4F9F4F0895E89409C055
:1024100097FB3EF490958095709561957F4F8F4F17
:102420009F4F9923A9F0F92F96E9BB279395F6952D
:10243000879577956795B795F111F8CFFAF4BB0FAB
:1024400011F460FF1BC06F5F7F4F8F4F9F4F16C00F
:10245000882311F096E911C0772321F09EE8872F99
:10246000762F05C0662371F096E8862F70E060E055
:102470002AF09A95660F771F881FDAF7880F9695CE
:10248000879597F90895990F0008550FAA0BE0E872
:10249000FEEF16161706E807F907C0F01216130626
:1024A000E407F50798F0621B730B840B950B39F466
:1024B0000A2661F0232B242B252B21F408950A26CC
:1024C00009F4A140A6958FEF811D811D089597F90C
:1024D0009F6780E870E060E008959FEF80EC0895CA
:1024E00000240A94161617061806090608950024F3
:1024F0000A9412161306140605060895092E03946D
:10250000000C11F4882352F0BB0F40F4BF2B11F4E0
:1025100060FF04C06F5F7F4F8F4F9F4F089557FD3F
:102520009058440F551F59F05F3F71F04795880F41
:1025300097FB991F61F09F3F79F0879508951216D8
:1025400013061406551FF2CF4695F1DF08C0161684
:1025500017061806991FF1CF869571056105089435
:102560000895E894BB2766277727CB0197F908954C
:102570000BD0C4CFB5DF28F0BADF18F0952309F0EF
:10258000A6CFABCF1124EECFCADFA0F3959FD1F336
:10259000950F50E0551F629FF001729FBB27F00D11
:1025A000B11D639FAA27F00DB11DAA1F649F662766
:1025B000B00DA11D661F829F2227B00DA11D621FB5
:1025C000739FB00DA11D621F839FA00D611D221F6F
:1025D000749F3327A00D611D231F849F600D211D53
:1025E000822F762F6A2F11249F5750408AF0E1F0F6
:1025F00088234AF0EE0FFF1FBB1F661F771F881F3F
:1026000091505040A9F79E3F510570F060CFAACF7E
:102610005F3FECF3983EDCF3869577956795B79529
:10262000F795E7959F5FC1F7FE2B880F911D969553
:10263000879597F90895DB018F939F930E944D131F
:10264000BF91AF91A29F800D911DA39F900DB29F4E
:10265000900D11240895A1E21A2EAA1BBB1BFD01A7
:102660000DC0AA1FBB1FEE1FFF1FA217B307E40771
:10267000F50720F0A21BB30BE40BF50B661F771FC9
:10268000881F991F1A9469F76095709580959095A9
:102690009B01AC01BD01CF0108950E949513A59F38
:1026A000900DB49F900DA49F800D911D112408954D
:1026B0000F93083090F0982F872F762F652F542F87
:1026C000432F322F22270850F4CF220F331F441FED
:1026D000551F661F771F881F991F0A95B2F70F9124
:1026E000089597FB10F8169400080F93083098F09F
:1026F0000850232F342F452F562F672F782F892FDF
:10270000902DF4CF05949795879577956795579574
:102710004795379527950A95AAF70F910895EE0FDB
:10272000FF1F0590F491E02D0994A29FB001B39F83
:10273000C001A39F700D811D1124911DB29F700DCA
:10274000811D1124911D0895EF920F931F93CF9334
:10275000DF93E80147FF02C034E101C034E0E42F19
:10276000FF27E7FDF095F7FF03C0F195E195F1092B
:10277000E32E022F2E2FAE010E94CF15CE01DF9146
:10278000CF911F910F91EF900895CF93DF938230F7
:10279000910510F482E090E0E091B203F091B30370
:1027A00020E030E0A0E0B0E0309739F14081518185
:1027B00048175907B8F04817590771F48281938177
:1027C000109729F013969C938E9312972CC0909398
:1027D000B3038093B20327C02115310531F04217AE
:1027E000530718F0A901DB0101C0EF019A01BD01F7
:1027F000DF010280F381E02DD7CF21153105F9F0FB
:10280000281B390B2430310580F48A819B816115A6
:10281000710521F0FB019383828304C09093B3037D
:102820008093B203FE01329644C0FE01E20FF31F13
:102830008193919322503109398328833AC02091A2
:10284000B0033091B103232B41F420910201309168
:1028500003013093B1032093B00320910001309124
:1028600001012115310541F42DB73EB74091040116
:1028700050910501241B350BE091B003F091B10399
:10288000E217F307A0F42E1B3F0B2817390778F047
:10289000AC014E5F5F4F2417350748F04E0F5F1FA6
:1028A0005093B1034093B0038193919302C0E0E051
:1028B000F0E0CF01DF91CF910895CF93DF930097A0
:1028C00009F487C0FC01329713821282C091B203CF
:1028D000D091B303209781F420813181280F391FD3
:1028E0008091B0039091B1038217930779F5F0932B
:1028F000B103E093B0036DC0DE0120E030E0AE171D
:10290000BF0750F412964D915C9113979D014115AC
:10291000510509F1DA01F3CFB383A28340815181DC
:10292000840F951F8A179B0771F48D919C911197C5
:10293000840F951F02969183808312968D919C91AE
:102940001397938382832115310529F4F093B30300
:10295000E093B2033EC0D9011396FC93EE93129715
:102960004D915D91A40FB51FEA17FB0779F48081A3
:102970009181840F951F0296D90111969C938E9395
:102980008281938113969C938E931297E0E0F0E0FE
:102990008A819B81009719F0FE01EC01F9CFCE01ED
:1029A000029628813981820F931F2091B0033091C4
:1029B000B1032817390769F4309729F41092B3034B
:1029C0001092B20302C013821282D093B103C0935B
:1029D000B003DF91CF910895A0E0B0E0E2EFF4E121
:1029E0000C942918EC01CB01209719F40E94C5130F
:1029F000B8C0FE01E60FF71F9E0122503109E21711
:102A0000F30708F4ACC0D9010D911C91119706177A
:102A10001707B8F00530110508F49FC0A80144500D
:102A200051094617570708F498C002501109061BB0
:102A3000170B019311936D937C93CF010E945D144A
:102A40008CC05B01A01AB10A4E01800E911EA091AC
:102A5000B203B091B303612C712C60E070E0109769
:102A600009F449C0A815B905C9F5ED90FC90119776
:102A7000670142E0C40ED11CCA14DB0478F147019F
:102A80008A189B08640142E0C40ED11C1296BC90C7
:102A900012971396AC91B5E0CB16D10440F0B282F8
:102AA000A38391828082D9018D939C9309C00E5F8C
:102AB0001F4F0E0D1F1DF90111830083EB2DFA2FFF
:102AC0006115710531F0DB011396FC93EE931297BB
:102AD00044C0F093B303E093B2033FC06D917C9187
:102AE00011976616770608F43B01BD0112960D900A
:102AF000BC91A02DB4CF6091B0037091B103681563
:102B00007905E9F468167906D0F4409100015091F6
:102B100001014115510541F44DB75EB760910401C3
:102B200070910501461B570BE417F507C0F4F093AD
:102B3000B103E093B003F901918380830EC00E943A
:102B4000C5137C01009759F0A801BE010E94B6157B
:102B5000CE010E945D14C70104C0CE0102C080E016
:102B600090E0CDB7DEB7EEE00C944518FB01DC0138
:102B700002C001900D9241505040D8F70895FB01DA
:102B8000DC018D91019080190110D9F3990B089502
:102B9000FB01DC0101900D920020E1F708956F9296
:102BA0007F929F92AF92BF92CF92DF92EF92FF926D
:102BB0000F931F93CF93DF93CDB7DEB729970FB64F
:102BC000F894DEBF0FBECDBF6A01B22E102F0C33BA
:102BD00020F4FF24F394F00E02C04CE3F42E0F2DEA
:102BE00027E0AE014F5F5F4F0E944D177981272F7D
:102BF0002970213031F0E1FC06C0E0FC06C060E045
:102C000005C06DE203C06BE201C060E2AE2DA071B1
:102C100073FF36C0662311F084E001C083E08B159A
:102C200010F4B81A01C0B12CA1110BC0F6018B2D04
:102C300090E2882319F091938150FBCFCB0CD11CEB
:102C4000B12C662331F0F601608396012F5F3F4F70
:102C50006901C6010396E2FE05C02EE4F601208359
:102C600031E404C02EE6F601208331E6318322836D
:102C7000FC012B2D30E22223F1F131932150FBCFC7
:102C800072FF40C0662311F084E001C083E08B1521
:102C900010F4B81A01C0B12CA1110BC0F6018B2D94
:102CA00090E2882319F091938150FBCFCB0CD11C7B
:102CB000B12C662331F0F601608396012F5F3F4F00
:102CC0006901C6010396E2FE07C029E4F6012083EC
:102CD0002EE4218326E406C029E6F60120832EE6B1
:102CE000218326E62283FC012B2D30E2222319F0DA
:102CF00031932150FBCFFC01EB0DF11D10828EEFC3
:102D00009FEFB7C0B1E0611101C0B0E04B2F50E0C0
:102D10001816190624F49C012F5F3F4F02C021E0D2
:102D200030E0240F351F112329F0412F50E04F5F71
:102D30005F4F02C040E050E0420F531F2B2D30E0A8
:102D40004217530714F4B41A01C0B12C2E2D287168
:102D500059F4F6012B2D30E2222319F03193215042
:102D6000FBCFCB0CD11CB12CBB2331F0F60160831F
:102D700096012F5F3F4F6901A1110BC0F6012B2D6A
:102D800030E3222319F031932150FBCFCB0CD11C1F
:102D9000B12CF80E0A81372F3071A32E74FF03C0B7
:102DA000013309F4FA941F142CF42F2D293018F054
:102DB00028E001C021E0682F392F97FF02C060E0B2
:102DC00030E0462F532F612C712C3EE2932EBC0134
:102DD000621B71099B01DC01A41BB50BE1E0F0E073
:102DE000EC0FFD1FAE0FBF1FE12EF12CF194E1940B
:102DF000F1084F3FFFEF5F0731F4F6019082B60113
:102E00006F5F7F4F6B01841795074CF024173507D0
:102E100034F4BD01660D771DFB01118101C010E383
:102E200041505109FFEF6F1A7F0AB6016F5F7F4F64
:102E30004E155F0524F0F60110836B01DACF4817B9
:102E4000590739F4063320F4053319F4A11001C0F1
:102E500011E3F6011083FB018B2D90E2882319F01A
:102E600091938150FBCFFB01EB0DF11D108280E0AF
:102E700090E029960FB6F894DEBF0FBECDBFDF916C
:102E8000CF911F910F91FF90EF90DF90CF90BF9067
:102E9000AF909F907F906F900895283008F027E0C2
:102EA0003327DA01990F311D87FD91600096610586
:102EB000710539F432602E5F3D9330E32A95E1F7D6
:102EC00008959F3F30F080387105610509F03C5F3F
:102ED0003C5F3D93913008F08068911DDF93CF9364
:102EE0001F930F93FF92EF92192F987F9695E92FDA
:102EF00096959695E90FFF27E45EFE4F99273327B5
:102F0000EE24FF24A701E70105900894079428F414
:102F1000360FE71EF81E491F511D660F771F881FC9
:102F2000991F0694A1F70590079428F4E70EF81E60
:102F3000491F561FC11D770F881F991F661F0694D2
:102F4000A1F70590079428F4F80E491F561FC71FD4
:102F5000D11D880F991F661F771F0694A1F7059052
:102F6000079420F4490F561FC71FD81F990F661FDB
:102F7000771F881F0694A9F784911095177041F068
:102F8000D695C79557954795F794E7941A95C1F745
:102F9000E2ECF0E06894159015913591659195916A
:102FA00005907FE27395E118F10A430B560BC90BAC
:102FB000D009C0F7E10CF11E431F561FC91FD01DD9
:102FC0007EF4703311F48A95E6CFE894015030F026
:102FD000080F0AF40027021708F4202F2395022F68
:102FE0007A3328F079E37D932A95E9F710C07D9331
:102FF0002A9589F6069497956795379517951794AE
:10300000E118F10A430B560BC90BD00998F0239530
:103010007E9173957A3308F070E37C932013B8F7B0
:103020007E9170617D9330F0839571E37D9370E3C1
:103030002A95E1F71124EF90FF900F911F91CF9106
:10304000DF91992787FD909508952F923F924F9297
:103050005F926F927F928F929F92AF92BF92CF9228
:10306000DF92EF92FF920F931F93CF93DF93CDB731
:10307000DEB7CA1BDB0B0FB6F894DEBF0FBECDBFA9
:1030800009942A88398848885F846E847D848C847A
:103090009B84AA84B984C884DF80EE80FD800C8183
:1030A0001B81AA81B981CE0FD11D0FB6F894DEBF66
:1030B0000FBECDBFED01089511E0C0ECD1E004C01A
:1030C000FE010E9491132296C23CD107C9F7F894E1
:0230D000FFCF30
:1030D2000000B40380008000FF000A000900020023
:1030E20005000300564D4450565F317C315F564D0A
:1030F2004450560D0A004845454C4F5521006B6F10
:103102006420776369736E69657465676F3A20003E
:103112006272616B2070727A796369736B75006792
:103122006F726100646F6C0073746F700074727AF6
:10313200796D616D00564D4450435F005F564D44BA
:1031420050430D0A004572726F723A2041747465E1
:103152006D707420746F20736574206120726561D4
:10316200642D6F6E6C79207661726961626C652084
:103172006F7220646174612074797065206E6F745F
:1031820020737570706F727465640D0A0000000020
:10319200007A0DF60EFC0C150D070D580D6E616EC2
:0C31A20000696E66006F7666002E00006B
:00000001FF
