:100000000C9464000C948C000C948C000C948C0068
:100010000C948C000C948C000C948C000C94B10605
:100020000C948C000C948C000C948C000C948C0020
:100030000C948C000C948C000C948C000C948C0010
:100040000C94560D0C948C000C94070F0C94390FE3
:100050000C948C000C948C000C948C000C948C00F0
:100060000C948C000C948C0000000008000201002D
:100070000003040700000000000000000102040863
:100080001020408001020408102001020408102002
:10009000040404040404040402020202020203032E
:1000A00003030303000000002300260029000000D2
:1000B0000000250028002B0000000000240027007D
:1000C0002A00A105690F470611241FBECFEFD8E013
:1000D000DEBFCDBF11E0A0E0B1E0EAE9FFE202C07F
:1000E00005900D92A636B107D9F723E0A6E6B1E058
:1000F00001C01D92A932B207E1F710E0C6ECD0E0D2
:1001000004C02297FE010E94FF14C23CD107C9F728
:100110000E94AD0F0C94C0170C9400002F923F92D8
:100120004F925F926F927F928F929F92AF92BF9207
:10013000CF92DF92EF92FF920F931F93CF93DF93B3
:1001400000D000D0CDB7DEB79C838B834B01390143
:10015000170128018C010C5F1F4F66E471E0C80194
:1001600049835A830E949E10EB81FC819182808298
:1001700049815A8153834283B301C8010E94B4105C
:10018000EB81FC812286338644865586D786C686D7
:10019000B18AA08A80810E94DE0E21E0892B09F0BD
:1001A00020E0EB81FC81228B238B0F900F900F902E
:1001B0000F90DF91CF911F910F91FF90EF90DF9003
:1001C000CF90BF90AF909F908F907F906F905F90F7
:1001D0004F903F902F900895CF93DF93EC0124969A
:1001E0006AE271E0CE010E9492116DE271E081112C
:1001F00007C0CE010E949211882339F06AE271E0B3
:10020000CE01DF91CF910C94D410DF91CF9108955E
:10021000EF92FF920F931F93CF93DF93EC018B012B
:100220007C0184E0E80EF11C6AE271E0C7010E94E3
:100230009211882339F060E070E08E850E94E70D0E
:10024000B8010DC06DE271E0C7010E9492118823D0
:1002500069F0B8018E850E94E70D60E070E0888942
:100260000E94E70D61E08A810E94A80E012B51F4E3
:1002700060E08A81DF91CF911F910F91FF90EF9005
:100280000C94A80EDF91CF911F910F91FF90EF90EA
:10029000089560E0809128010E946F0E84E791E04C
:1002A0000E949A0662E0809126010E946F0E61E032
:1002B000809120010E946F0E61E0809124010E94D4
:1002C0006F0E61E0809122010E946F0E62E08091CA
:1002D0001E010E946F0E61E0809118010E946F0E56
:1002E00061E080911C010E946F0E61E080911A0113
:1002F0000C946F0E0F931F93CF93DF93CDB7DEB7A0
:1003000062970FB6F894DEBF0FBECDBF80919B0100
:1003100090919C01A0919D01B0919E014091790125
:1003200050917A0160917B0170917C01452B462BA5
:10033000472B69F4409175015091760160917701E6
:1003400070917801481759076A077B0749F0809137
:10035000A3019091A4019111C3C0882309F4C0C0E6
:1003600062E371E0CE010D960E949E1040919B01C8
:1003700050919C0160919D0170919E018091790145
:1003800090917A01A0917B01B0917C01892B8A2BFD
:100390008B2B71F48091750190917601A09177017A
:1003A000B091780184179507A607B70709F4BAC07A
:1003B00060E070E04AE0CE0107960E94EC10BE01BA
:1003C000695F7F4FCE0101960E94CB1062E471E01D
:1003D000CE0101960E947811BC01CE010D960E94BB
:1003E0007111CE0101960E943010CE0107960E9435
:1003F00030106091A3018091A401811160E070E050
:100400004AE0CE0107960E94EC10BE01695F7F4F63
:10041000CE0101960E94CB1062E471E0CE010196FC
:100420000E947811BC01CE010D960E947111CE017F
:1004300001960E943010CE0107960E943010BE0136
:10044000635F7F4F88E892E00E940C1081E991E0A1
:100450000E94EC000E94A00D00910601109107017E
:10046000222717FD2095322F600F711F821F931FC7
:100470006093A5017093A6018093A7019093A801B2
:100480006DE271E085E991E00E949211882371F09C
:1004900060910A0170910B0181E991E00E940801CD
:1004A0006DE271E088E892E00E941E106AE271E05D
:1004B00085E991E00E949211882371F060910E010C
:1004C00070910F0181E991E00E9408016AE271E0F8
:1004D00088E892E00E941E10CE010D960E94301016
:1004E0004091790150917A0160917B0170917C017A
:1004F00080919B0190919C01A0919D01B0919E01E2
:10050000481759076A077B0779F480917501909124
:100510007601A0917701B0917801892B8A2B8B2BE2
:1005200019F426C061E045CF9091A3018091A40108
:10053000882311F09923E1F04091750150917601E3
:10054000609177017091780180919B0190919C015D
:10055000A0919D01B0919E01481759076A077B073A
:10056000A1F0809191010E94DE0E892BE9F50DC06A
:1005700060E070E081E991E00E94080169E371E0C8
:1005800088E892E00E941E10D7CF0E94A00D009133
:10059000A5011091A6012091A7013091A801601733
:1005A00071078207930700F16DE271E085E991E040
:1005B0000E949211882341F0609108017091090115
:1005C00081E991E00E9408016AE271E085E991E029
:1005D0000E949211882341F060910C0170910D01ED
:1005E00081E991E00E94080162960FB6F894DEBF9F
:1005F0000FBECDBFDF91CF911F910F9108950F9343
:100600001F93CF93DF93CDB7DEB762970FB6F89401
:10061000DEBF0FBECDBF8091870190918801A09170
:100620008901B0918A014091790150917A016091DC
:100630007B0170917C01452B462B472B69F440913F
:10064000750150917601609177017091780148179A
:1006500059076A077B0749F080918F0190919001BB
:100660009111C3C0882309F4C0C062E371E0CE01D8
:100670000D960E949E1040918701509188016091D3
:10068000890170918A018091790190917A01A091FC
:100690007B01B0917C01892B8A2B8B2B71F480918B
:1006A000750190917601A0917701B091780184173E
:1006B0009507A607B70709F4BAC060E070E04AE002
:1006C000CE0107960E94EC10BE01695F7F4FCE01FC
:1006D00001960E94CB1062E471E0CE0101960E9467
:1006E0007811BC01CE010D960E947111CE010196C8
:1006F0000E943010CE0107960E94301060918F0149
:1007000080919001811160E070E04AE0CE0107968F
:100710000E94EC10BE01695F7F4FCE0101960E94DE
:10072000CB1062E471E0CE0101960E947811BC0109
:10073000CE010D960E947111CE0101960E943010DB
:10074000CE0107960E943010BE01635F7F4F88E89C
:1007500092E00E940C108DE791E00E94EC000E9454
:10076000A00D0091060110910701222717FD209589
:10077000322F600F711F821F931F6093A50170932A
:10078000A6018093A7019093A8016DE271E081E832
:1007900091E00E949211882371F060910A0170919A
:1007A0000B018DE791E00E9408016DE271E088E89D
:1007B00092E00E941E106AE271E081E891E00E94DE
:1007C0009211882371F060910E0170910F018DE7F5
:1007D00091E00E9408016AE271E088E892E00E94DC
:1007E0001E10CE010D960E9430104091790150915B
:1007F0007A0160917B0170917C01809187019091D9
:100800008801A0918901B0918A01481759076A07A8
:100810007B0779F48091750190917601A091770121
:10082000B0917801892B8A2B8B2B19F426C061E0BB
:1008300045CF90918F0180919001882311F09923E9
:10084000E1F04091750150917601609177017091CE
:1008500078018091870190918801A0918901B091E0
:100860008A01481759076A077B07A1F080917D012B
:100870000E94DE0E892BE9F50DC060E070E08DE787
:1008800091E00E94080169E371E088E892E00E942B
:100890001E10D7CF0E94A00D0091A5011091A601B6
:1008A0002091A7013091A801601771078207930773
:1008B00000F16DE271E081E891E00E9492118823DD
:1008C00041F060910801709109018DE791E00E946B
:1008D00008016AE271E081E891E00E9492118823A8
:1008E00041F060910C0170910D018DE791E00E9443
:1008F000080162960FB6F894DEBF0FBECDBFDF9140
:10090000CF911F910F9108952FEF81EE94E0215028
:1009100080409040E1F700C0000066E671E084E7A7
:1009200091E00E94EB0C892BA1F180916A019091DA
:100930006B01A0916C01B0916D018F3F2FEF920779
:10094000A207B20789F08093AD019093AE01A09306
:10095000AF01B093B0018093A9019093AA01A09335
:10096000AB01B093AC0110C08091A9019091AA0194
:10097000A091AB01B091AC018093AD019093AE0119
:10098000A093AF01B093B00184E791E00E945007BB
:1009900008C01092AD011092AE011092AF011092FA
:1009A000B0016091AD017091AE018091AF01909165
:1009B000B0010895CF93DF93CDB7DEB762970FB63E
:1009C000F894DEBF0FBECDBF0E9484046093750112
:1009D00070937601809377019093780180919101D3
:1009E0000E94DE0E21E0892B09F020E02093A30174
:1009F00080917D010E94DE0E21E0892B09F020E02C
:100A000020938F016EE371E0CE010D960E949E103F
:100A10004091790150917A0160917B0170917C0144
:100A20002AE0CE0107960E941811BE01695F7F4F30
:100A3000CE0101960E94CB1062E471E0CE010196D6
:100A40000E947811BC01CE010D960E947111CE0159
:100A500001960E943010CE0107960E9430104091FE
:100A600075015091760160917701709178012AE0CB
:100A7000CE0107960E941811BE01695F7F4FCE011B
:100A800001960E94CB1062E471E0CE0101960E94B3
:100A90007811BC01CE010D960E947111CE01019614
:100AA0000E943010CE0107960E94301065E971E077
:100AB000CE0101960E94CB1062E471E0CE01019656
:100AC0000E947811BC01CE010D960E947111CE01D9
:100AD00001960E94301061E871E0CE010D960E94EF
:100AE0007111BE01635F7F4F88E892E00E940C1095
:100AF0000E947A010E94FF02809175019091760117
:100B0000A0917701B09178018093790190937A0157
:100B1000A0937B01B0937C018091A3018093A401F9
:100B200080918F0180939001CE010D960E9430102C
:100B300062960FB6F894DEBF0FBECDBFDF91CF91A6
:100B400008954F925F926F927F92AF92BF92CF9231
:100B5000DF92EF92FF920F931F93CF93DF9300D01A
:100B600000D000D0CDB7DEB78091AD019091AE013D
:100B7000A091AF01B091B0018093A9019093AA0117
:100B8000A093AB01B093AC01A0902401B0902501DB
:100B9000C0902201D0902301409014015090150183
:100BA00060901601709017016DE271E0CE01019620
:100BB0000E949E10409120015091210160912601D8
:100BC00070912701830172019E012F5F3F4F81E9E0
:100BD00091E00E948E00CE0101960E943010A090FC
:100BE0001C01B0901D01C0901A01D0901B014090D3
:100BF00010015090110160901201709013016DE28C
:100C000071E0CE0101960E949E1040911801509112
:100C1000190160911E0170911F01830172019E01F3
:100C20002F5F3F4F8DE791E00E948E00CE0101962D
:100C30000E94301010927501109276011092770187
:100C4000109278011092790110927A0110927B0132
:100C500010927C01609128017091290184E791E054
:100C60000E94950626960FB6F894DEBF0FBECDBF44
:100C7000DF91CF911F910F91FF90EF90DF90CF9078
:100C8000BF90AF907F906F905F904F90089581E8F4
:100C900091E00E94301085E991E00C943010CF92E1
:100CA000DF92EF92FF92CF93DF93EC01882777FDDD
:100CB0008095982F0E9498136B017C0120E030E012
:100CC00040E45FE30E94481420E030E048E452E44E
:100CD0000E94FD120E946513C617D707ECF020E0B2
:100CE00030E040EA5FE3C701B6010E94481420E00B
:100CF00030E048E452E40E94FD1220E030E040E899
:100D00005FE30E9495120E94651321E06C177D0736
:100D10000CF420E0822F01C080E090E0DF91CF91C1
:100D2000FF90EF90DF90CF9008956093B101109203
:100D3000B3010895F89482E08093B0008093B100ED
:100D400094E69093B3001092B20080937000789470
:100D50008093B20110927E028091B10160E00C9408
:100D60006F0E1F920F920FB60F9211242F933F9385
:100D70004F935F936F937F938F939F93AF93BF93A3
:100D8000EF93FF938091B1010E94DE0E2091B40198
:100D90003091B5012F5F3F4F3093B5012093B401DF
:100DA00090917E02943618F095E09093B201909164
:100DB000B2019330B9F018F4923039F057C0943042
:100DC00059F1953009F44CC051C081114FC02091A8
:100DD000B4013091B5012436310508F443C01092B6
:100DE0007E021CC0813009F041C0E0917E0291E09A
:100DF0009E0F90937E02F0E02091B4013091B501F6
:100E0000EE0FFF1FEF54FE4F368325831092B5017E
:100E10001092B40194E021C0811117C0E0917E02CC
:100E200091E09E0F90937E02F0E02091B40130910A
:100E3000B501EE0FFF1FEF54FE4F3683258310924E
:100E4000B5011092B40193E008C02091B401309133
:100E5000B5012536310550F095E09093B20106C0FA
:100E6000811104C01092B5011092B4019091B301A8
:100E7000992329F0811102C02D9A01C02D98FF916C
:100E8000EF91BF91AF919F918F917F916F915F9102
:100E90004F913F912F910F900FBE0F901F9018957B
:100EA00082E08093B20110927E020895CF93DF9387
:100EB000FB01C285D3858A819B81885891098D3534
:100EC000910500F580917E02843029F48C819D810A
:100ED00080974797D8F080917E02843498F08C8177
:100EE0009D81825491098E9768F4269623E030E024
:100EF00080E090E0DC014881598149505109493036
:100F00005105D8F060E070E0CB013AC08E819F813E
:100F10000997099700F7118610868FEF9FEFDC0184
:100F200084839583A683B78381E090E09183808357
:100F300061E070E080E090E023C04A815B8146512F
:100F400051094131510580F4880F991FAA1FBB1F19
:100F500081602E5F3F4F24962334310561F620E2F5
:100F600030E031872087DCCF4A815B8146505109D0
:100F70004730510538F6880F991FAA1FBB1FE9CFCC
:100F8000DF91CF9108950F931F93CF93DF93FB01D0
:100F900080917E028A3108F44DC0C285D385888154
:100FA0009981843F914060F4118610868FEF9FEF06
:100FB000DC0184839583A683B78389E090E033C006
:100FC0008A819B8185974B97A8F58E010A5F1F4FF9
:100FD00022E030E080E090E0DC0140917E0250E0D1
:100FE000B9016F5F7F4F641775075CF4A801425029
:100FF0005109EA014881598147505109473051054B
:10100000E8F02150310935952795318720872C301C
:1010100031051CF4118610860DC084839583A68348
:10102000B78382E090E09183808361E070E080E0AC
:1010300090E023C060E070E0CB011FC0E801488170
:101040005981435151094F30510550F4880F991F70
:10105000AA1FBB1F81602E5F3F4F0C5F1F4FBDCF8C
:10106000E801488159814A5051094930510510F72A
:10107000880F991FAA1FBB1FEECFDF91CF911F9141
:101080000F9108950F931F93CF93DF93FB018091EE
:101090007E028A3108F451C0C285D3858881998146
:1010A0008032934030F4118610868FEF9FEFDC0181
:1010B00007C08A819B81C697869708F442C03DC0CD
:1010C00084839583A683B78389E090E091838083AE
:1010D00061E070E080E090E04FC0E8014881598114
:1010E000455251094B315105D0F5880F991FAA1F60
:1010F000BB1F81602E5F3F4F0C5F1F4F40917E02F0
:1011000050E0B9016F5F7F4F641775075CF4A80169
:1011100042505109EA01488159814C5051094B30E4
:101120005105D8F22150310935952795318720870F
:101130002C3031052CF61186108660E070E0CB0172
:101140001BC08C819D81C6978697B8F78E01085F7A
:101150001F4F23E030E080E090E0DC01CFCFE801DA
:10116000488159814C5051094A30510530F7880F58
:10117000991FAA1FBB1FBECFDF91CF911F910F9167
:101180000895EF92FF920F931F93CF93DF93FB018C
:1011900080917E02823208F44DC0C285D3858A8157
:1011A0009B810697079708F045C07E0186E0E80E10
:1011B000F11C22E030E080E090E0DC01B9016F5FDB
:1011C0007F4F40917E0250E064177507D4F4E70129
:1011D0002297088119810E5111090731110570F507
:1011E000880F991FAA1FBB1F8160E70148815981A1
:1011F000D4E0ED0EF11C435051094530510550F13A
:101200009B01215031093595279531872087203161
:1012100031051CF4118610860DC084839583A68346
:10122000B7838AE090E09183808361E070E080E0A2
:1012300090E013C060E070E0CB010FC0488159819D
:101240004C5051094B305105A8F7880F991FAA1F20
:10125000BB1FCBCF2E5F3F4FB1CFDF91CF911F91FF
:101260000F91FF90EF9008958F929F92AF92BF924F
:10127000CF92DF92EF92FF920F931F93CF93DF9362
:101280007A016901DA01CD91DC91FB0184859585B4
:10129000C817D9070CF04AC0CE01880F991F0284E5
:1012A000F385E02DE80FF91FA080B180C170DD2724
:1012B000F1E0CF27209719F484E690E002C08CE992
:1012C0009FEF4801880E991EB401C5010E944F0688
:1012D000892B99F4800E911EB401C5010E944F061E
:1012E000892B71F4B401600F711FC5010E944F0674
:1012F000892BF9F023E030E005C021E030E002C0A6
:1013000022E030E0D6018D919C91119701968217D1
:10131000930744F0F60111821082D7018D919C91C0
:10132000119701968D939C93CE0105C081E090E0CA
:1013300002C08FEF9FEFDF91CF911F910F91FF9030
:10134000EF90DF90CF90BF90AF909F908F900895D7
:101350004F925F926F927F928F929F92AF92BF92C5
:10136000CF92DF92EF92FF920F931F93CF93DF9371
:1013700000D000D0CDB7DEB76C017B0180917E023A
:101380008D3020F460E070E0CB017AC081E090E025
:101390009C838B831A82198209E713E09E012F5FD9
:1013A0003F4FAE014D5F5F4FC6010E943409892B4C
:1013B00049F79E012F5F3F4FAE014D5F5F4FB70171
:1013C000C6010E9434090197E9F69E012F5F3F4F45
:1013D000AE014D5F5F4FB701C6010E943409892BF2
:1013E00089F6A12CB12C412C512C320180917E0226
:1013F00090E02B813C81281739079CF509E713E021
:101400009E012F5F3F4FAE014D5F5F4FB701C60199
:101410000E9434094C019E012F5F3F4FAE014D5F8A
:101420005F4FB701C6010E94340921E08216910482
:1014300051F4892B09F0A6CF440C551C661C771C6F
:10144000689440F80AC0892809F09CCF019709F0F8
:1014500099CF440C551C661C771C8FEFA81AB80A4C
:10146000C5CFF701B186A086448255826682778215
:1014700083E090E09183808361E070E080E090E021
:101480000F900F900F900F90DF91CF911F910F91C0
:10149000FF90EF90DF90CF90BF90AF909F908F9094
:1014A0007F906F905F904F9008952F923F924F9250
:1014B0005F926F927F928F929F92AF92BF92CF92E4
:1014C000DF92EF92FF920F931F93CF93DF9300D0A1
:1014D00000D0CDB7DEB76C017B01DB011C968D918E
:1014E0009C911D971816190624F060E070E0CB015E
:1014F000B4C081E090E09C838B83DB011A96ED9170
:10150000FC911B978281938189974E9770F782E0B7
:1015100090E09C838B83848195810B970A9728F7B1
:1015200083E090E09C838B831A8219820CEB11E09C
:101530009E012F5F3F4FAE014D5F5F4FC6010E947E
:101540003409892B91F60CEB11E09E012F5F3F4F80
:10155000AE014D5F5F4FB701C6010E94340901978C
:1015600021F6A12CB12C212C312C21012B813C8185
:10157000F70184859585281739070CF060C00CEBBE
:1015800011E09E012F5F3F4FAE014D5F5F4FB701EE
:10159000C6010E9434093C01B3E0AB16B10491F0DE
:1015A0000CEB11E09E012F5F3F4FAE014D5F5F4F8F
:1015B000B701C6010E9434094C01E3E0AE16B10444
:1015C00009F510C00CEB11E09E012F5F3F4FAE01FB
:1015D0004D5F5F4FB701C6010E9434096816790656
:1015E000F9F283CF0CEB11E09E012F5F3F4FAE016C
:1015F0004D5F5F4FB701C6010E94340988169906F6
:1016000009F073CF6114710459F48A94892809F0A0
:101610006CCF220C331C441C551C689420F80BC062
:101620006A94672809F061CF892809F05ECF220CFF
:10163000331C441C551CAFEFAA1ABA0A97CFB186C7
:10164000A086248235824682578284E090E091838E
:10165000808361E070E080E090E00F900F900F9049
:101660000F90DF91CF911F910F91FF90EF90DF903E
:10167000CF90BF90AF909F908F907F906F905F9032
:101680004F903F902F9008950F931F93CF93DF9328
:10169000FB01A285B38512968D919C911397C697F5
:1016A0008697D0F414968D919C9115974B974597FA
:1016B00098F41696C3E0D0E020E030E040E050E03F
:1016C00060E070E080E090E00D911C91119709506E
:1016D00011090830110520F060E070E0CB0135C041
:1016E00012960D911C911397015111090D3011059E
:1016F000F8F401E00E94C614216022961496C336C5
:10170000D10511F7248335834683578300E20E9475
:10171000E1142283338387E090E09183808380E328
:1017200090E09187808761E070E080E090E00DC0FC
:1017300012960D911C911397045011090530110553
:1017400058F601E00E94C614D8CFDF91CF911F91C7
:101750000F9108950F931F93CF93DF93FB01809117
:101760007E02028513858232A9F4D80112968D91EA
:101770009C9113970A97099768F480917E02D8018B
:10178000A80FB11DA80FB11D12978D919C910A97BA
:10179000099770F0D80112968D919C9113978957F3
:1017A00091098335910550F060E070E0CB015EC097
:1017B000118610868FEF9FEFDC014CC080917E0276
:1017C000813290F3E8018C819D81CA97899760F7F7
:1017D00098012A5F3F4F43E050E080E090E0DC0159
:1017E000E901688179816A50710969307105E0F613
:1017F000E9016A817B816651710961317105E0F40B
:10180000880F991FAA1FBB1F81604E5F5F4F2C5F1F
:101810003F4F4332510521F7E801CA5BDF4F288172
:1018200039812A5031092930310508F0BDCF20E136
:1018300030E0318720870EC0E9016A817B816650E4
:1018400071096730710508F0AFCF880F991FAA1F83
:10185000BB1FDBCF84839583A683B78388E090E0AA
:101860009183808361E070E080E090E0DF91CF9130
:101870001F910F9108958F929F92AF92BF92CF9236
:10188000DF92EF92FF927B01BA0180E090E00E942C
:1018900096134B015C01B70180E090E00E94961323
:1018A0006B017C012DEC3CEC4CE45FE30E9448149E
:1018B0009B01AC01C501B4010E94F91287FD17C05C
:1018C0002DEC3CEC4CE45FE3C501B4010E944814EC
:1018D0009B01AC01C701B6010E94F912992787FD4F
:1018E00090958827990F881F9927019602C080E05C
:1018F00090E0FF90EF90DF90CF90BF90AF909F90DF
:101900008F9008958F929F92AF92BF92CF92DF9265
:10191000EF92FF920F931F93CF93DF936C01EB0134
:10192000EC84FD8486E0E816F1040CF444C0EE0C6F
:10193000FF1C06E010E045EC842E4DE9942E4CE1AE
:10194000A42E41E8B42E8A859B85FC01E00FF11F8F
:1019500040815181F8013497E80FF91F608171814E
:10196000C6010E943B0CFC01A501940163E971E0F2
:1019700080E091E00E94AB144F01AA2497FCA09450
:10198000BA2C86269726A826B9260E5F1F4F0E155D
:101990001F05C9F68C829D82AE82BF8280E290E0F4
:1019A000998788878FEF9FEF9983888361E070E044
:1019B00080E090E003C060E070E0CB01DF91CF9168
:1019C0001F910F91FF90EF90DF90CF90BF90AF905D
:1019D0009F908F9008950F931F93CF93DF938C0167
:1019E000EB0186EB91E09B878A8780917E0290E0F5
:1019F0009D878C878091B201853009F050C0C80165
:101A00000E945607672B682B692B19F081E090E044
:101A100048C0BE01C8010E94C307672B682B692B11
:101A2000A9F7BE01C8010E944208672B682B692BE9
:101A300069F7BE01C8010E94C108672B682B692B9A
:101A400029F7BE01C8010E94A809672B682B692BE2
:101A5000E9F6BE01C8010E94550A672B682B692B65
:101A6000A9F6BE01C8010E94440B672B682B692BA5
:101A700069F6BE01C8010E94AA0B672B682B692B6F
:101A800029F6BE01C8010E94820C672B682B692BC6
:101A900009F0BCCF82E08093B20110927E0280E018
:101AA00090E0DF91CF911F910F9108951F920F92B7
:101AB0000FB60F9211242F933F938F939F93AF9361
:101AC000BF938091800290918102A0918202B09197
:101AD000830230917F0223E0230F2D3720F40196FB
:101AE000A11DB11D05C026E8230F0296A11DB11D41
:101AF00020937F028093800290938102A0938202C0
:101B0000B09383028091840290918502A091860215
:101B1000B09187020196A11DB11D8093840290931C
:101B20008502A0938602B0938702BF91AF919F91E7
:101B30008F913F912F910F900FBE0F901F9018958E
:101B40002FB7F89460918002709181028091820297
:101B5000909183022FBF0895789484B5826084BDEC
:101B600084B5816084BD85B5826085BD85B58160A1
:101B700085BDEEE6F0E0808181608083E1E8F0E001
:101B80001082808182608083808181608083E0E830
:101B9000F0E0808181608083E1EBF0E0808184600F
:101BA0008083E0EBF0E0808181608083EAE7F0E011
:101BB0008081846080838081826080838081816075
:101BC00080838081806880831092C10008951F9374
:101BD000CF93DF93182FEB0161E00E946F0E2097E7
:101BE00011F460E004C0CF3FD10539F461E0812FEA
:101BF000DF91CF911F910C94A80EE12FF0E0E859EE
:101C0000FF4FE491E330F9F048F4E130B9F0E2300D
:101C1000A1F584B5806284BDC8BD34C0E730E9F069
:101C2000E83019F1E43049F58091800080628093BA
:101C30008000D0938B00C0938A0024C084B5806854
:101C400084BDC7BD1FC080918000806880938000E4
:101C5000D0938900C093880015C08091B00080683F
:101C60008093B000C093B3000DC08091B00080623B
:101C70008093B000C093B40005C0C038D1050CF00B
:101C8000B5CFAFCFDF91CF911F910895833081F011
:101C900028F4813099F08230A1F008958730A9F0BE
:101CA0008830B9F08430D1F4809180008F7D03C0FA
:101CB000809180008F7780938000089584B58F771E
:101CC00002C084B58F7D84BD08958091B0008F7768
:101CD00003C08091B0008F7D8093B0000895CF93B2
:101CE000DF9390E0FC01E458FF4F2491FC01E057A2
:101CF000FF4F8491882349F190E0880F991FFC01E0
:101D0000E854FF4FA591B49182559F4FFC01C591B6
:101D1000D4919FB7611108C0F8948C9120958223CB
:101D20008C93888182230AC0623051F4F8948C919C
:101D3000322F309583238C938881822B888304C033
:101D4000F8948C91822B8C939FBFDF91CF91089553
:101D50000F931F93CF93DF931F92CDB7DEB7282F3A
:101D600030E0F901E859FF4F8491F901E458FF4F41
:101D70001491F901E057FF4F04910023C9F0882323
:101D800021F069830E94460E6981E02FF0E0EE0F9A
:101D9000FF1FE255FF4FA591B4919FB7F8948C9126
:101DA000611103C01095812301C0812B8C939FBFCB
:101DB0000F90DF91CF911F910F910895CF93DF93F3
:101DC000282F30E0F901E859FF4F8491F901E458D8
:101DD000FF4FD491F901E057FF4FC491CC2391F00C
:101DE00081110E94460EEC2FF0E0EE0FFF1FEC5524
:101DF000FF4FA591B4912C912D2381E090E021F427
:101E000080E002C080E090E0DF91CF9108951F92C2
:101E10000F920FB60F9211242F938F939F93EF93EE
:101E2000FF93E0919802F09199028081E0919E02E7
:101E3000F0919F0282FD12C090818091A1028F5F7C
:101E40008F732091A202821751F0E091A102F0E07D
:101E5000E857FD4F958F8093A10201C08081FF91CB
:101E6000EF919F918F912F910F900FBE0F901F9028
:101E700018951F920F920FB60F9211242F933F9334
:101E80004F935F936F937F938F939F93AF93BF9382
:101E9000EF93FF9388E892E00E94EC11FF91EF919D
:101EA000BF91AF919F918F917F916F915F914F9172
:101EB0003F912F910F900FBE0F901F90189588E8BB
:101EC00092E00E94B11121E0892B09F420E0822FD9
:101ED000089510928B0210928A0288EE93E0A0E09F
:101EE000B0E080938C0290938D02A0938E02B09309
:101EF0008F0289E591E0909389028093880285ECB6
:101F000090E0909395028093940284EC90E09093FB
:101F100097028093960280EC90E0909399028093D0
:101F2000980281EC90E090939B0280939A0282EC5D
:101F300090E090939D0280939C0286EC90E09093B9
:101F40009F0280939E021092A1021092A202109210
:101F5000A3021092A402089508950E94AC0D0E945D
:101F6000AC0F0E944901CEEDD1E10E94DA04209726
:101F7000E1F30E94DE11F9CFCF92DF92EF92FF9250
:101F80000F931F93CF93DF937C016A01EB0100E075
:101F900010E00C151D0571F06991D701ED91FC91D0
:101FA0000190F081E02DC7010995892B19F00F5F91
:101FB0001F4FEFCFC801DF91CF911F910F91FF907D
:101FC000EF90DF90CF9008956115710581F0DB01EE
:101FD0000D900020E9F7AD0141505109461B570B08
:101FE000DC01ED91FC910280F381E02D099480E009
:101FF00090E00895DC01ED91FC91DB0114964D9188
:102000005C9115976D917C910280F381E02D09948C
:1020100064E471E00C94E40F0F931F93CF93DF936C
:10202000EC010E94FA0F8C01CE010E940810800F73
:10203000911FDF91CF911F910F9108950F931F93DF
:10204000CF93DF93EC010E94E40F8C01CE010E943C
:102050000810800F911FDF91CF911F910F9108956C
:10206000FC01808191810C94AA15CF93DF93EC0140
:1020700088819981009711F00E94AA15198218820F
:102080001D821C821B821A82DF91CF9108950F93CB
:102090001F93CF93DF93EC018B016F5F7F4F88819C
:1020A00099810E943916009731F0998388831B83A8
:1020B0000A8381E001C080E0DF91CF911F910F91F1
:1020C0000895CF93DF93EC0188819981892B29F0C2
:1020D0008A819B818617970760F4CE010E94471082
:1020E000882341F08C819D81892B19F4E881F98145
:1020F000108281E0DF91CF910895EF92FF920F93CC
:102100001F93CF93DF93EC017B018A01BA010E94F8
:102110006110811104C0CE010E94351007C01D83DB
:102120000C83B701888199810E941517CE01DF9138
:10213000CF911F910F91FF90EF900895FC011182B4
:10214000108213821282158214826115710559F072
:10215000FB0101900020E9F7AF0141505109461BF6
:10216000570B0C947D100895CF93DF93EC01FB0186
:102170008617970761F0608171816115710529F0FB
:10218000448155810E947D1002C00E943510CE010D
:10219000DF91CF910895FC01118210821382128287
:1021A000158214820C94B410CF93DF93EC01611567
:1021B000710561F0FB0101900020E9F7AF0141508A
:1021C0005109461B570B0E947D1002C00E9435101A
:1021D000CE01DF91CF9108950F931F93CF93DF939B
:1021E000CDB7DEB762970FB6F894DEBF0FBECDBF96
:1021F0008C01CB01F80111821082138212821582A8
:10220000148250E0BE016F5F7F4F0E941C17BE0119
:102210006F5F7F4FC8010E94D41062960FB6F8948A
:10222000DEBF0FBECDBFDF91CF911F910F910895FB
:102230000F931F93CF93DF93CDB7DEB7A1970FB660
:10224000F894DEBF0FBECDBF8C01CB01BA01F801FF
:1022500011821082138212821582148230E0AE0144
:102260004F5F5F4F0E943217BE016F5F7F4FC80103
:102270000E94D410A1960FB6F894DEBF0FBECDBF5A
:10228000DF91CF911F910F910895EF92FF920F93DD
:102290001F93CF93DF93EC017B010C811D816115AE
:1022A000710511F480E016C04115510591F0040F3D
:1022B000151FB8010E9461108823A1F3288139817C
:1022C0008C819D81B701820F931F0E9415171D837A
:1022D0000C8381E0DF91CF911F910F91FF90EF90E0
:1022E0000895FB0144815581608171810C944511F1
:1022F000CF93DF93EC016115710569F0FB0101904B
:102300000020E9F7AF0141505109461B570B0E94CD
:102310004511811103C0CE010E943510CE01DF911D
:10232000CF910895FC0124813581232B31F421E0E4
:1023300061157105A1F0FB0108C0FC01808191814C
:102340006115710531F421E0FC018081882339F0A9
:1023500005C00E940C1721E0892B09F020E0822F94
:102360000895FC01818D228D90E0805C9F4F821B3F
:1023700091098F7399270895FC01918D828D98178B
:1023800031F0828DE80FF11D858D90E008958FEF7B
:102390009FEF0895FC01918D828D981761F0828DD9
:1023A000DF01A80FB11D5D968C91928D9F5F9F7389
:1023B000928F90E008958FEF9FEF08958FE59FE053
:1023C000892B49F080E090E0892B29F00E945F0F73
:1023D00081110C9400000895FC01848DDF01A80F89
:1023E000B11DA35ABF4F2C91848D90E001968F733D
:1023F0009927848FA689B7892C93A089B1898C915C
:1024000080648C93938D848D981306C00288F38921
:10241000E02D80818F7D80830895CF93DF93EC0141
:10242000888D8823C9F0EA89FB89808185FD05C0F4
:10243000A889B9898C9186FD0FC00FB607FCF5CF2E
:10244000808185FFF2CFA889B9898C9185FFEDCF76
:10245000CE010E94EC11E7CFDF91CF910895CF928A
:10246000DF92FF920F931F93CF93DF931F92CDB70D
:10247000DEB76C0181E0D60158968C9358975B9635
:102480009C915B975C968C915C97981307C05096D3
:10249000ED91FC915197808185FD2EC0F601038D51
:1024A00010E00F5F1F4F0F731127F02EF601848D80
:1024B000F81211C00FB607FCF9CFD6015096ED9176
:1024C000FC915197808185FFF1CFC60169830E94FD
:1024D000EC116981EBCF838DE80FF11DE35AFF4FBB
:1024E0006083D6015B960C935B975296ED91FC91BD
:1024F0005397808180620CC0D6015696ED91FC9175
:10250000579760835096ED91FC915197808180643C
:10251000808381E090E00F90DF91CF911F910F9128
:10252000FF90DF90CF9008955058BB27AA270ED078
:1025300075C166D130F06BD120F031F49F3F11F4BA
:102540001EF45BC10EF4E095E7FB51C1E92F77D192
:1025500080F3BA17620773078407950718F071F4C0
:102560009EF58FC10EF4E0950B2EBA2FA02D0B0116
:10257000B90190010C01CA01A0011124FF27591BC8
:1025800099F0593F50F4503E68F11A16F040A22FCE
:10259000232F342F4427585FF3CF4695379527953F
:1025A000A795F0405395C9F77EF41F16BA0B620B3E
:1025B000730B840BBAF09150A1F0FF0FBB1F661F85
:1025C000771F881FC2F70EC0BA0F621F731F841FC8
:1025D00048F4879577956795B795F7959E3F08F0EE
:1025E000B3CF9395880F08F09927EE0F97958795AD
:1025F0000895D9D008F481E008950CD00FC107D117
:1026000040F0FED030F021F45F3F19F0F0C05111DE
:1026100039C1F3C014D198F39923C9F35523B1F309
:10262000951B550BBB27AA2762177307840738F041
:102630009F5F5F4F220F331F441FAA1FA9F333D0A0
:102640000E2E3AF0E0E830D091505040E695001C54
:10265000CAF729D0FE2F27D0660F771F881FBB1F10
:10266000261737074807AB07B0E809F0BB0B802DEA
:10267000BF01FF2793585F4F2AF09E3F510568F036
:10268000B6C000C15F3FECF3983EDCF386957795CA
:102690006795B795F7959F5FC9F7880F911D969538
:1026A000879597F90895E1E0660F771F881FBB1F94
:1026B000621773078407BA0720F0621B730B840B41
:1026C000BA0BEE1F88F7E095089504D06894B11115
:1026D000D9C00895BCD088F09F5790F0B92F9927A2
:1026E000B751A0F0D1F0660F771F881F991F1AF01D
:1026F000BA95C9F712C0B13081F0C3D0B1E00895E6
:10270000C0C0672F782F8827B85F39F0B93FCCF366
:10271000869577956795B395D9F73EF49095809512
:10272000709561957F4F8F4F9F4F0895E89409C032
:1027300097FB3EF490958095709561957F4F8F4FF4
:102740009F4F9923A9F0F92F96E9BB279395F6950A
:10275000879577956795B795F111F8CFFAF4BB0F88
:1027600011F460FF1BC06F5F7F4F8F4F9F4F16C0EC
:10277000882311F096E911C0772321F09EE8872F76
:10278000762F05C0662371F096E8862F70E060E032
:102790002AF09A95660F771F881FDAF7880F9695AB
:1027A000879597F90895990F0008550FAA0BE0E84F
:1027B000FEEF16161706E807F907C0F01216130603
:1027C000E407F50798F0621B730B840B950B39F443
:1027D0000A2661F0232B242B252B21F408950A26A9
:1027E00009F4A140A6958FEF811D811D089597F9E9
:1027F0009F6780E870E060E008959FEF80EC0895A7
:1028000000240A94161617061806090608950024CF
:102810000A9412161306140605060895092E039449
:10282000000C11F4882352F0BB0F40F4BF2B11F4BD
:1028300060FF04C06F5F7F4F8F4F9F4F089557FD1C
:102840009058440F551F59F05F3F71F04795880F1E
:1028500097FB991F61F09F3F79F0879508951216B5
:1028600013061406551FF2CF4695F1DF08C0161661
:1028700017061806991FF1CF869571056105089412
:102880000895E894BB2766277727CB0197F9089529
:102890000BD0C4CFB5DF28F0BADF18F0952309F0CC
:1028A000A6CFABCF1124EECFCADFA0F3959FD1F313
:1028B000950F50E0551F629FF001729FBB27F00DEE
:1028C000B11D639FAA27F00DB11DAA1F649F662743
:1028D000B00DA11D661F829F2227B00DA11D621F92
:1028E000739FB00DA11D621F839FA00D611D221F4C
:1028F000749F3327A00D611D231F849F600D211D30
:10290000822F762F6A2F11249F5750408AF0E1F0D2
:1029100088234AF0EE0FFF1FBB1F661F771F881F1B
:1029200091505040A9F79E3F510570F060CFAACF5B
:102930005F3FECF3983EDCF3869577956795B79506
:10294000F795E7959F5FC1F7FE2B880F911D969530
:10295000879597F90895DB018F939F930E94BB148D
:10296000BF91AF91A29F800D911DA39F900DB29F2B
:10297000900D112408950E940315A59F900DB49FFA
:10298000900DA49F800D911D112408950F93083080
:1029900090F0982F872F762F652F542F432F322FAB
:1029A00022270850F4CF220F331F441F551F661FE4
:1029B000771F881F991F0A95B2F70F91089597FB0B
:1029C00010F8169400080F93083098F00850232F41
:1029D000342F452F562F672F782F892F902DF4CF26
:1029E000059497958795779567955795479537956A
:1029F00027950A95AAF70F910895EE0FFF1F0590EE
:102A0000F491E02D0994A29FB001B39FC001A39F50
:102A1000700D811D1124911DB29F700D811D112417
:102A2000911D0895CF93DF938230910510F482E0D9
:102A300090E0E0912703F091280320E030E0A0E04F
:102A4000B0E0309739F14081518148175907B8F00B
:102A50004817590771F482819381109729F01396D2
:102A60009C938E9312972CC09093280380932703F6
:102A700027C02115310531F04217530718F0A9017D
:102A8000DB0101C0EF019A01BD01DF010280F3818A
:102A9000E02DD7CF21153105F9F0281B390B243053
:102AA000310580F48A819B816115710521F0FB015C
:102AB0009383828304C09093280380932703FE01AD
:102AC000329644C0FE01E20FF31F8193919322508E
:102AD0003109398328833AC0209125033091260398
:102AE000232B41F4209102013091030130932603FE
:102AF000209325032091000130910101211531051A
:102B000041F42DB73EB74091040150910501241BBB
:102B1000350BE0912503F0912603E217F307A0F4AB
:102B20002E1B3F0B2817390778F0AC014E5F5F4F23
:102B30002417350748F04E0F5F1F5093260340932C
:102B400025038193919302C0E0E0F0E0CF01DF9193
:102B5000CF910895CF93DF93009709F487C0FC01CC
:102B6000329713821282C0912703D09128032097B5
:102B700081F420813181280F391F809125039091A4
:102B800026038217930779F5F0932603E093250334
:102B90006DC0DE0120E030E0AE17BF0750F41296A2
:102BA0004D915C9113979D014115510509F1DA0191
:102BB000F3CFB383A28340815181840F951F8A177D
:102BC0009B0771F48D919C911197840F951F02962C
:102BD0009183808312968D919C9113979383828326
:102BE0002115310529F4F0932803E09327033EC013
:102BF000D9011396FC93EE9312974D915D91A40F1A
:102C0000B51FEA17FB0779F480819181840F951F26
:102C10000296D90111969C938E938281938113968B
:102C20009C938E931297E0E0F0E08A819B8100975D
:102C300019F0FE01EC01F9CFCE010296288139810D
:102C4000820F931F209125033091260328173907FF
:102C500069F4309729F4109228031092270302C0D8
:102C600013821282D0932603C0932503DF91CF9164
:102C70000895A0E0B0E0EFE3F6E10C948D17EC01CD
:102C8000CB01209719F40E941215B8C0FE01E60F7F
:102C9000F71F9E0122503109E217F30708F4ACC078
:102CA000D9010D911C91119706171707B8F005303F
:102CB000110508F49FC0A801445051094617570751
:102CC00008F498C002501109061B170B01931193C9
:102CD0006D937C93CF010E94AA158CC05B01A01A52
:102CE000B10A4E01800E911EA0912703B0912803D6
:102CF000612C712C60E070E0109709F449C0A815B0
:102D0000B905C9F5ED90FC901197670142E0C40E3A
:102D1000D11CCA14DB0478F147018A189B086401AE
:102D200042E0C40ED11C1296BC9012971396AC913F
:102D3000B5E0CB16D10440F0B282A38391828082A9
:102D4000D9018D939C9309C00E5F1F4F0E0D1F1D5F
:102D5000F90111830083EB2DFA2F6115710531F014
:102D6000DB011396FC93EE93129744C0F093280373
:102D7000E09327033FC06D917C911197661677060B
:102D800008F43B01BD0112960D90BC91A02DB4CF6B
:102D9000609125037091260368157905E9F468169A
:102DA0007906D0F44091000150910101411551057F
:102DB00041F44DB75EB76091040170910501461B67
:102DC000570BE417F507C0F4F0932603E0932503AF
:102DD000F901918380830EC00E9412157C01009737
:102DE00059F0A801BE010E940317CE010E94AA1546
:102DF000C70104C0CE0102C080E090E0CDB7DEB7CD
:102E0000EEE00C94A917FB01DC0102C001900D92C9
:102E100041505040D8F70895FB01DC018D9101909D
:102E200080190110D9F3990B0895FB01DC01019081
:102E30000D920020E1F708954532510520F442300B
:102E400010F00C942717FB011082CB010895BB27CB
:102E50004A3031F4992322F4BDE2909581959F4F39
:102E60000C9460172532310520F4223010F00C94B8
:102E70003D17FA011082CA010895BB27FA01A62F57
:102E80006217710581059105330B30FB66F0AA27A7
:102E9000660F771F881F991FAA1FA21710F0A21B89
:102EA00063953850A9F7A05DAA3308F0A95DA193F6
:102EB00036F7B111B1931082CA010C947917BB2770
:102EC000FB015527AA27880F991FAA1FA41710F0E6
:102ED000A41B83955051B9F7A05DAA3308F0A95DF2
:102EE000A193009779F7B111B1931192CB010C9492
:102EF0007917DC01FC01672F71917723E1F7329795
:102F000004C07C916D9370836291AE17BF07C8F3C4
:102F100008952F923F924F925F926F927F928F927D
:102F20009F92AF92BF92CF92DF92EF92FF920F9358
:102F30001F93CF93DF93CDB7DEB7CA1BDB0B0FB662
:102F4000F894DEBF0FBECDBF09942A88398848881F
:102F50005F846E847D848C849B84AA84B984C884B5
:102F6000DF80EE80FD800C811B81AA81B981CE0FAC
:102F7000D11D0FB6F894DEBF0FBECDBFED01089591
:102F800010E0C6ECD0E004C0FE010E94FF142296BF
:0A2F9000C83CD107C9F7F894FFCF41
:102F9A00000029038000DC05CC007F00FF00FF0051
:102FAA005FA0F700DF20F7000D000A000900070004
:102FBA000C000600050008000400757000646F77B5
:102FCA006E006B7373733A200073746F70006B6FCB
:102FDA00643A20000D0A006E616E00696E66006F29
:102FEA007666002E00000000002F12BC0FB111CA35
:062FFA0011BC110D1200D4
:00000001FF
